:100000000C9446000C9465000C9465000C946500FB
:100010000C9465000C9465000C9465000C946500CC
:100020000C9465000C9465000C9465000C946500BC
:100030000C9465000C940C010C9465000C94650004
:100040000C9465000C9465000C9465000C9465009C
:100050000C9465000C9465000C9465000C9465008C
:100060000C9465000C9465000C9465000C9465007C
:100070000C9465000C9465000C9465000C9465006C
:100080000C9465000C9465000C94650011241FBE4F
:10009000CFEFD0E4DEBFCDBF11E0A0E0B1E0EEECE9
:1000A000F2E100E00BBF02C007900D92A232B1074F
:1000B000D9F721E0A2E2B1E001C01D92A338B20756
:1000C000E1F70E94DD060C9465090C940000CF93C3
:1000D000DF9300D01F92CDB7DEB789837B836A831D
:1000E00089818A3031F48A819B81BC018DE00E9434
:1000F000670080EC90E0FC018081882F90E08072A6
:100100009927892BB1F386EC90E02981FC012083AB
:1001100080E090E00F900F900F90DF91CF910895C5
:10012000CF93DF9300D000D0CDB7DEB769837A8359
:100130008B839C8389819A81AB81BC8180930E01E2
:1001400090930F01A0931001B093110180910E01C3
:1001500090910F01A0911001B091110180932301A2
:1001600090932401A0932501B093260100000F90E5
:100170000F900F900F90DF91CF910895CF93DF9361
:10018000CDB7DEB781E890E02BE0FC01208388E862
:1001900090E02DE730E0FC01318320838FE690E092
:1001A00022E0FC01208384E890E0FC0111821082AF
:1001B00080910E0190910F01A0911001B091110159
:1001C0008093230190932401A0932501B0932601ED
:1001D0008FE590E02FE530E0F90120812068FC01F7
:1001E00020830000DF91CF910895CF93DF93CDB7A7
:1001F000DEB781E890E0FC0110820000DF91CF9132
:100200000895CF93DF93CDB7DEB781E080932201CD
:100210000000DF91CF9108951F920F9200905F0030
:100220000F92112400905B000F922F933F934F93F6
:100230005F936F937F938F939F93AF93BF93EF934E
:10024000FF93CF93DF93CDB7DEB7809123019091D9
:100250002401A0912501B09126010197A109B109BE
:100260008093230190932401A0932501B09326014C
:100270008091230190912401A0912501B091260144
:10028000892B8A2B8B2B91F40E94010180910E0106
:1002900090910F01A0911001B09111018093230161
:1002A00090932401A0932501B09326010000DF91D3
:1002B000CF91FF91EF91BF91AF919F918F917F91DE
:1002C0006F915F914F913F912F910F9000925B0042
:1002D0000F9000925F000F901F901895CF93DF93BF
:1002E000CDB7DEB72C970FB6F894DEBF0FBECDBFEB
:1002F0006D837E838F83988729873A874B875C87B6
:100300008D819E81AF81B88529853A854B855C8535
:10031000BC01CD010E944309DC01CB0189839A8392
:10032000AB83BC8389819A81AB81BC81892B8A2B69
:100330008B2B29F489859A85AB85BC8511C089856D
:100340009A85AB85BC858D839E83AF83B887898171
:100350009A81AB81BC8189879A87AB87BC87D0CFD4
:10036000BC01CD012C960FB6F894DEBF0FBECDBFF9
:10037000DF91CF910895CF93DF9300D000D0CDB718
:10038000DEB78B836C831A82198233C08C818130F3
:1003900031F488E290E028E0FC01208308C08C81E1
:1003A000823029F488E290E020E1FC01208388E299
:1003B00090E028E230E0F9012081422F2B81222FAA
:1003C00030E0098002C0359527950A94E2F7217044
:1003D000242BFC01208388E290E028E230E0F90140
:1003E00020812260FC01208389819A8101969A8371
:1003F000898389819A8108974CF28C81813051F4EC
:1004000088E290E028E230E0F90120812460FC01DC
:1004100020830CC08C81823049F488E290E028E28D
:1004200030E0F90120812062FC01208388E290E025
:10043000FC01108200000F900F900F900F90DF9141
:10044000CF910895CF93DF9300D0CDB7DEB79A83D5
:10045000898389819A8181309105A9F08230910543
:100460001CF4892B39F033C082309105C1F0039719
:1004700011F12DC080918001823071F581E090E012
:100480009A83898329C080918001823029F482E097
:1004900090E09A83898321C01A8219821EC08091BC
:1004A0008001823029F483E090E09A83898315C02B
:1004B0001A82198212C080918001823029F481E071
:1004C00090E09A83898309C01A82198206C081E06C
:1004D00090E09A83898301C0000089819A818130EC
:1004E000910561F0823091051CF4892BE1F01CC06C
:1004F0008230910551F0039779F016C08091810107
:10050000682F83EC0E94BB010FC080918101682F8E
:1005100088E10E94BB0108C080918101682F84E2BC
:100520000E94BB0101C0000089819A810F900F9049
:10053000DF91CF910895CF93DF9300D0CDB7DEB791
:100540009A83898389819A818230910519F1833058
:1005500091052CF4009749F0019781F03FC083305A
:10056000910521F1049771F139C0809180018823B0
:10057000D1F581E090E09A83898335C08091800134
:10058000882329F482E090E09A8389832DC01A821F
:1005900019822AC080918001882329F483E090E0A9
:1005A0009A83898321C01A8219821EC0809180019A
:1005B000882329F484E090E09A83898315C01A8205
:1005C000198212C080918001882329F481E090E093
:1005D0009A83898309C01A82198206C081E090E05B
:1005E0009A83898301C0000089819A8182309105B4
:1005F000A9F0833091052CF4009729F1019739F087
:1006000023C08330910589F00497B1F01DC080911B
:100610008101682F8AEA0E94BB0116C08091810186
:10062000682F85E50E94BB010FC080918101682F72
:100630008CE30E94BB0108C080918101682F85EA8C
:100640000E94BB0101C0000089819A810F900F9028
:10065000DF91CF910895CF93DF9300D0CDB7DEB770
:100660009A83898389819A8181309105A9F08230AA
:1006700091051CF4892B39F033C082309105C1F00B
:10068000039711F12DC080918001813071F581E0D7
:1006900090E09A83898329C080918001813029F478
:1006A00082E090E09A83898321C01A8219821EC059
:1006B00080918001813029F483E090E09A838983DE
:1006C00015C01A82198212C080918001813029F4EC
:1006D00081E090E09A83898309C01A82198206C05A
:1006E00081E090E09A83898301C0000089819A812A
:1006F0008130910561F0823091051CF4892BE1F085
:100700001CC08230910551F0039779F016C080919A
:100710008101682F88E10E94BB010FC08091810197
:10072000682F86E60E94BB0108C080918101682F76
:1007300087EE0E94BB0101C0000089819A810F9061
:100740000F90DF91CF910895CF93DF9300D0CDB775
:10075000DEB79A83898389819A818230910551F12C
:10076000833091052CF40097B9F1019749F058C0F6
:100770008330910509F442C0049709F448C050C081
:1007800080917F01813029F482E090E09A8389830F
:100790004CC080917F01823019F41A82198245C0C1
:1007A00080917F01833009F040C083E090E09A831C
:1007B00089833BC080917F01823029F481E090E001
:1007C0009A83898334C080917F01833081F583E0EF
:1007D00090E09A8389832BC080917F01813029F436
:1007E00081E090E09A83898324C080917F018330E7
:1007F00001F583E090E09A8389831BC080917F019B
:100800008823C9F484E090E09A83898314C080919E
:100810007F01833091F481E090E09A8389830DC059
:1008200081E090E09A83898309C0000007C000003E
:1008300005C0000003C0000001C0000089819A814A
:100840008230910589F0833091052CF4009799F05E
:10085000019721F024C00397A9F021C010928001D4
:1008600081E0809381011BC081E08093800181E061
:100870008093810114C082E08093800181E08093A5
:1008800081010DC083E08093800181E0809381012C
:1008900080918101682F80E00E94BB010000898166
:1008A0009A810F900F90DF91CF910895CF93DF93AE
:1008B00000D0CDB7DEB79A83898389819A81813050
:1008C0009105A9F0823091051CF4892B39F033C0D1
:1008D00082309105C1F0039711F12DC08091820102
:1008E000823071F581E090E09A83898329C08091FC
:1008F0008201823029F482E090E09A83898321C0CA
:100900001A8219821EC080918201823029F483E00C
:1009100090E09A83898315C01A82198212C080914F
:100920008201823029F481E090E09A83898309C0B2
:100930001A82198206C081E090E09A83898301C0FF
:10094000000089819A818130910561F082309105A2
:100950001CF4892BE1F01CC08230910551F0039703
:1009600079F016C080918101682F83EC0E94BB0151
:100970000FC080918101682F88E10E94BB0108C0EF
:1009800080918101682F84E20E94BB0101C00000B8
:1009900089819A810F900F90DF91CF910895CF9325
:1009A000DF9300D0CDB7DEB79A83898389819A819E
:1009B0008230910519F1833091052CF4009749F0AC
:1009C000019781F03FC08330910521F1049771F1C7
:1009D00039C0809182018823D1F581E090E09A832B
:1009E000898335C080918201882329F482E090E0D8
:1009F0009A8389832DC01A8219822AC0809182012C
:100A0000882329F483E090E09A83898321C01A82A5
:100A100019821EC080918201882329F484E090E02D
:100A20009A83898315C01A82198212C0809182012B
:100A3000882329F481E090E09A83898309C01A828F
:100A4000198206C081E090E09A83898301C000008A
:100A500089819A8182309105A9F0833091052CF427
:100A6000009729F1019739F023C08330910589F06F
:100A70000497B1F01DC080918101682F8AEA0E941D
:100A8000BB0116C080918101682F85E50E94BB01E2
:100A90000FC080918101682F8CE30E94BB0108C0C8
:100AA00080918101682F85EA0E94BB0101C000008E
:100AB00089819A810F900F90DF91CF910895CF9304
:100AC000DF9300D0CDB7DEB79A83898389819A817D
:100AD00081309105A9F0823091051CF4892B39F001
:100AE00033C082309105C1F0039711F12DC0809180
:100AF0008201813071F581E090E09A83898329C079
:100B000080918201813029F482E090E09A83898388
:100B100021C01A8219821EC080918201813029F47D
:100B200083E090E09A83898315C01A82198212C0EB
:100B300080918201813029F481E090E09A83898359
:100B400009C01A82198206C081E090E09A838983E5
:100B500001C0000089819A818130910561F0823065
:100B600091051CF4892BE1F01CC08230910551F0F5
:100B7000039779F016C080918101682F88E10E9467
:100B8000BB010FC080918101682F86E60E94BB01E6
:100B900008C080918101682F87EE0E94BB0101C0CF
:100BA000000089819A810F900F90DF91CF91089575
:100BB000CF93DF9300D0CDB7DEB79A838983898145
:100BC0009A818230910551F1833091052CF4009780
:100BD000B9F1019749F058C08330910509F442C03A
:100BE000049709F448C050C080917F01843029F4F3
:100BF00082E090E09A8389834CC080917F018830A5
:100C000019F41A82198245C080917F018C3009F055
:100C100040C083E090E09A8389833BC080917F014C
:100C2000883029F481E090E09A83898334C08091F0
:100C30007F018C3081F583E090E09A8389832BC01B
:100C400080917F01843029F481E090E09A83898348
:100C500024C080917F018C3001F583E090E09A837D
:100C600089831BC080917F018823C9F484E090E0D0
:100C70009A83898314C080917F018C3091F481E044
:100C800090E09A8389830DC081E090E09A83898304
:100C900009C0000007C0000005C0000003C000003C
:100CA00001C0000089819A818230910589F08330EA
:100CB00091052CF4009799F0019721F024C0039737
:100CC000A9F021C01092820182E0809381011BC0B3
:100CD00081E08093820182E08093810114C082E0F0
:100CE0008093820182E0809381010DC083E0809334
:100CF000820182E08093810180918101682F80E0F0
:100D00000E94BB01000089819A810F900F90DF91B2
:100D1000CF9108952F923F92CF93DF93CDB7DEB757
:100D20002E970FB6F894DEBF0FBECDBF6D837E83C6
:100D30008F83988729873A874B875C873E862D86E5
:100D40008D819E81AF81B88529853A854B855C85EB
:100D5000BC01CD010E944309DC01CB0189839A8348
:100D6000AB83BC8389819A81AB81BC81892B8A2B1F
:100D70008B2B29F489859A85AB85BC8511C0898523
:100D80009A85AB85BC858D839E83AF83B887898127
:100D90009A81AB81BC8189879A87AB87BC87D0CF8A
:100DA000BC01CD012E960FB6F894DEBF0FBECDBFAD
:100DB000DF91CF913F902F9008952F923F920F9304
:100DC0001F93CF93DF93CDB7DEB769970FB6F89433
:100DD000DEBF0FBECDBF81E290E0FC01108282E257
:100DE00090E02FEFFC01208384E290E02FEFFC01E4
:100DF000208385E290E0FC01108287E290E02FEFF3
:100E0000FC01208388E290E0FC01108210927F01B7
:100E100080E1E2E1F1E0DE011A9601900D928A95FF
:100E2000E1F788E090E098878F838FEF8987898545
:100E30008093270182E390E0A0E0B0E08093280156
:100E400090932901A0932A01B0932B01809128014E
:100E500090912901A0912A01B0912B0180932C013E
:100E600090932D01A0932E01B0932F0182E292E086
:100E7000909331018093300189858093320182E320
:100E800090E0A0E0B0E08093330190933401A09310
:100E90003501B09336018091330190913401A091D6
:100EA0003501B09136018093370190933801A093BA
:100EB0003901B0933A018BE992E090933C01809321
:100EC0003B01898580933D0182E390E0A0E0B0E0A2
:100ED00080933E0190933F01A0934001B093410164
:100EE00080913E0190913F01A0914001B09141015C
:100EF0008093420190934301A0934401B093450134
:100F00008BE293E09093470180934601898580931B
:100F1000480182E390E0A0E0B0E080934901909323
:100F20004A01A0934B01B0934C01809149019091EB
:100F30004A01A0914B01B0914C0180934D019093D7
:100F40004E01A0934F01B093500184EA93E0909337
:100F500052018093510189858093530182E390E08F
:100F6000A0E0B0E08093540190935501A093560106
:100F7000B09357018091540190915501A091560171
:100F8000B09157018093580190935901A0935A0151
:100F9000B0935B0186E594E090935D0180935C01E2
:100FA000898580935E0182E390E0A0E0B0E08093C9
:100FB0005F0190936001A0936101B0936201809101
:100FC0005F0190916001A0916101B09162018093F5
:100FD000630190936401A0936501B09366018FEC67
:100FE00094E09093680180936701898580936901FB
:100FF00082E390E0A0E0B0E080936A0190936B01FF
:10100000A0936C01B0936D0180916A0190916B0186
:10101000A0916C01B0916D0180936E0190936F016E
:10102000A0937001B09371018FE595E090937301E7
:101030008093720189858093740182E390E0A0E03F
:10104000B0E08093750190937601A0937701B093FF
:1010500078018091750190917601A0917701B0910E
:1010600078018093790190937A01A0937B01B093EA
:101070007C0188ED95E090937E0180937D018A85C7
:101080009B85FC0181819281A381B4818B839C83A8
:10109000AD83BE8381E090E09A83898329C08981F2
:1010A0009A81880F991F9E012F5F3F4F820F931FD8
:1010B0000996FC0180819181FC012181328143816B
:1010C00054818B819C81AD81BE81BE01665F7F4F63
:1010D0001B01BC01CD010E948A06DC01CB018B8380
:1010E0009C83AD83BE8389819A8101969A8389838B
:1010F00029813A818F8198852817390780F28B8161
:101100009C81AD81BE81BC01CD010E9490000E94F6
:10111000BE0080E290E0FC018081809580937F0199
:101120001A821982A0C089819A81880F991F9E0115
:101130002F5F3F4F820F931F0996FC0180819181A1
:10114000FC01258136814781508589819A81880FEC
:10115000991FBE016F5F7F4F860F971F0996FC0195
:1011600080819181FC0181819281A381B4812817C2
:1011700039074A075B0709F045C089819A81880FC2
:10118000991F9E012F5F3F4F820F931F0996FC010D
:101190000081118189819A81880F991F9E012F5F9B
:1011A0003F4F820F931F0996FC0180819181FC01C2
:1011B0002185328589819A81880F991FAE014F5F01
:1011C0005F4F840F951F0996FC0180819181FC017E
:1011D0008081082E000C990BF9010995F801808394
:1011E00089819A81880F991F9E012F5F3F4F820F3F
:1011F000931F0996FC0180819181FC011582168262
:101200001782108689819A81880F991F9E012F5F0E
:101210003F4F820F931F0996FC0160817181898184
:101220009A81880F991F9E012F5F3F4F820F931F56
:101230000996FC0180819181FC01258136814781DD
:1012400050858B819C81AD81BE81820F931FA41F2D
:10125000B51FFB0185839683A783B08789819A8117
:1012600001969A83898329813A818F8198852817ED
:10127000390708F458CF0000809122018823E1F358
:101280001092220146CFA1E21A2EAA1BBB1BFD0120
:101290000DC0AA1FBB1FEE1FFF1FA217B307E40755
:1012A000F50720F0A21BB30BE40BF50B661F771FAD
:1012B000881F991F1A9469F760957095809590958D
:0E12C0009B01AC01BD01CF010895F894FFCF52
:1012CE0000000002000000006700000000000100A6
:1012DE000000270132013D01480153015E01690101
:0212EE00740189
:00000001FF
