:100000000C9446000C9465000C9465000C946500FB
:100010000C9465000C9465000C9465000C946500CC
:100020000C9465000C9465000C9465000C946500BC
:100030000C9465000C940C010C9465000C94650004
:100040000C9465000C9465000C9465000C9465009C
:100050000C9465000C9465000C9465000C9465008C
:100060000C9465000C9465000C9465000C9465007C
:100070000C9465000C9465000C9465000C9465006C
:100080000C9465000C9465000C94650011241FBE4F
:10009000CFEFD0E4DEBFCDBF11E0A0E0B1E0E8EAF1
:1000A000FCE000E00BBF02C007900D92AA31B1073F
:1000B000D9F721E0AAE1B1E001C01D92AD34B20749
:1000C000E1F70E945E040C9452060C940000CF935A
:1000D000DF9300D01F92CDB7DEB789837B836A831D
:1000E00089818A3031F48A819B81BC018DE00E9434
:1000F000670080EC90E0FC018081882F90E08072A6
:100100009927892BB1F386EC90E02981FC012083AB
:1001100080E090E00F900F900F90DF91CF910895C5
:10012000CF93DF9300D000D0CDB7DEB769837A8359
:100130008B839C8389819A81AB81BC8180930E01E2
:1001400090930F01A0931001B093110180910E01C3
:1001500090910F01A0911001B091110180931B01AA
:1001600090931C01A0931D01B0931E0100000F90FD
:100170000F900F900F90DF91CF910895CF93DF9361
:10018000CDB7DEB781E890E02BE0FC01208388E862
:1001900090E02DE730E0FC01318320838FE690E092
:1001A00022E0FC01208384E890E0FC0111821082AF
:1001B00080910E0190910F01A0911001B091110159
:1001C00080931B0190931C01A0931D01B0931E010D
:1001D0008FE590E02FE530E0F90120812068FC01F7
:1001E00020830000DF91CF910895CF93DF93CDB7A7
:1001F000DEB781E890E0FC0110820000DF91CF9132
:100200000895CF93DF93CDB7DEB781E080931A01D5
:100210000000DF91CF9108951F920F9200905F0030
:100220000F92112400905B000F922F933F934F93F6
:100230005F936F937F938F939F93AF93BF93EF934E
:10024000FF93CF93DF93CDB7DEB780911B019091E1
:100250001C01A0911D01B0911E010197A109B109D6
:1002600080931B0190931C01A0931D01B0931E016C
:1002700080911B0190911C01A0911D01B0911E0164
:10028000892B8A2B8B2B91F40E94010180910E0106
:1002900090910F01A0911001B091110180931B0169
:1002A00090931C01A0931D01B0931E010000DF91EB
:1002B000CF91FF91EF91BF91AF919F918F917F91DE
:1002C0006F915F914F913F912F910F9000925B0042
:1002D0000F9000925F000F901F901895CF93DF93BF
:1002E000CDB7DEB72C970FB6F894DEBF0FBECDBFEB
:1002F0006D837E838F83988729873A874B875C87B6
:100300008D819E81AF81B88529853A854B855C8535
:10031000BC01CD010E943006DC01CB0189839A83A8
:10032000AB83BC8389819A81AB81BC81892B8A2B69
:100330008B2B29F489859A85AB85BC8511C089856D
:100340009A85AB85BC858D839E83AF83B887898171
:100350009A81AB81BC8189879A87AB87BC87D0CFD4
:10036000BC01CD012C960FB6F894DEBF0FBECDBFF9
:10037000DF91CF910895CF93DF9300D01F92CDB737
:10038000DEB78B831A82198227C088E290E028E0CA
:10039000FC01208388E290E028E230E0F90120812E
:1003A000422F2B81222F30E0098002C035952795FE
:1003B0000A94E2F72170242BFC01208388E290E06C
:1003C00028E230E0F90120812260FC01208389814C
:1003D0009A8101969A83898389819A810897ACF2E0
:1003E00088E290E028E230E0F90120812460FC01FD
:1003F000208388E290E0FC01108200000F900F90B3
:100400000F90DF91CF910895CF93DF9300D0CDB7B8
:10041000DEB79A83898389819A8181309105A9F019
:10042000823091051CF4892B39F033C0823091055C
:10043000C1F0039711F12DC080914C01823071F50C
:1004400081E090E09A83898329C080914C018230B9
:1004500029F482E090E09A83898321C01A8219826C
:100460001EC080914C01823029F483E090E09A8391
:10047000898315C01A82198212C080914C01823082
:1004800029F481E090E09A83898309C01A82198255
:1004900006C081E090E09A83898301C000008981D1
:1004A0009A818130910561F0823091051CF4892B8D
:1004B00099F013C08230910539F0039749F00DC0CF
:1004C00083EC0E94BB0109C088E10E94BB0105C00A
:1004D00084E20E94BB0101C0000089819A810F90D3
:1004E0000F90DF91CF910895CF93DF9300D0CDB7D8
:1004F000DEB79A83898389819A818230910519F1C7
:10050000833091052CF4009749F0019781F03FC0AA
:100510008330910521F1049771F139C080914C012C
:100520008823D1F581E090E09A83898335C080915A
:100530004C01882329F482E090E09A8389832DC0BE
:100540001A8219822AC080914C01882329F483E001
:1005500090E09A83898321C01A8219821EC08091FB
:100560004C01882329F484E090E09A83898315C0A4
:100570001A82198212C080914C01882329F481E0EB
:1005800090E09A83898309C01A82198206C081E0AB
:1005900090E09A83898301C0000089819A8182302A
:1005A000910591F0833091052CF40097C9F00197E3
:1005B00039F017C08330910559F0049769F011C0E4
:1005C0008AEA0E94BB010DC085E50E94BB0109C0FB
:1005D0008CE30E94BB0105C085EA0E94BB0101C0FB
:1005E000000089819A810F900F90DF91CF9108953B
:1005F000CF93DF9300D0CDB7DEB79A83898389810B
:100600009A8181309105A9F0823091051CF4892BE3
:1006100039F033C082309105C1F0039711F12DC03C
:1006200080914C01813071F581E090E09A8389835B
:1006300029C080914C01813029F482E090E09A83B6
:10064000898321C01A8219821EC080914C01813099
:1006500029F483E090E09A83898315C01A82198275
:1006600012C080914C01813029F481E090E09A839E
:10067000898309C01A82198206C081E090E09A83BA
:10068000898301C0000089819A818130910561F0E0
:10069000823091051CF4892B99F013C082309105AA
:1006A00039F0039749F00DC088E10E94BB0109C0F1
:1006B00086E60E94BB0105C087EE0E94BB0101C017
:1006C000000089819A810F900F90DF91CF9108955A
:1006D000CF93DF9300D0CDB7DEB79A83898389812A
:1006E0009A818230910551F1833091052CF4009765
:1006F000B9F1019749F058C08330910509F442C01F
:10070000049709F448C050C080914B01813029F40E
:1007100082E090E09A8389834CC080914B018230C3
:1007200019F41A82198245C080914B01833009F077
:1007300040C083E090E09A8389833BC080914B0165
:10074000823029F481E090E09A83898334C08091DB
:100750004B01833081F583E090E09A8389832BC03D
:1007600080914B01813029F481E090E09A83898364
:1007700024C080914B01833001F583E090E09A839F
:1007800089831BC080914B018823C9F484E090E0E9
:100790009A83898314C080914B01833091F481E066
:1007A00090E09A8389830DC081E090E09A838983E9
:1007B00009C0000007C0000005C0000003C0000021
:1007C00001C0000089819A818230910571F08330E7
:1007D00091052CF4009769F0019721F015C003975B
:1007E00061F012C010924C010FC081E080934C0167
:1007F0000BC082E080934C0107C083E080934C01E2
:1008000080E00E94BB01000089819A810F900F90C7
:10081000DF91CF9108952F923F92CF93DF93CDB781
:10082000DEB72E970FB6F894DEBF0FBECDBF6D8337
:100830007E838F83988729873A874B875C873E869C
:100840002D868D819E81AF81B88529853A854B851E
:100850005C85BC01CD010E943006DC01CB0189839F
:100860009A83AB83BC8389819A81AB81BC81892BBC
:100870008A2B8B2B29F489859A85AB85BC8511C081
:1008800089859A85AB85BC858D839E83AF83B88728
:1008900089819A81AB81BC8189879A87AB87BC8724
:1008A000D0CFBC01CD012E960FB6F894DEBF0FBE9F
:1008B000CDBFDF91CF913F902F9008952F923F921F
:1008C0000F931F93CF93DF93CDB7DEB761970FB62A
:1008D000F894DEBF0FBECDBF81E290E0FC01108234
:1008E00082E290E02FEFFC01208384E290E02FEF82
:1008F000FC01208385E290E0FC01108287E290E019
:100900002FEFFC01208388E290E0FC01108210921E
:100910004B0188E0E2E1F1E0DE011A9601900D92D0
:100920008A95E1F784E090E098878F838FEF89873D
:10093000898580931F0182E390E0A0E0B0E080937E
:10094000200190932101A0932201B0932301809173
:10095000200190912101A0912201B0912301809367
:10096000240190932501A0932601B093270184E0F0
:1009700092E09093290180932801898580932A0130
:1009800082E390E0A0E0B0E080932B0190932C01F3
:10099000A0932D01B0932E0180912B0190912C01F9
:1009A000A0912D01B0912E0180932F0190933001E1
:1009B000A0933101B093320184E792E09093340127
:1009C0008093330189858093350182E390E0A0E034
:1009D000B0E08093360190933701A0933801B09333
:1009E00039018091360190913701A0913801B09181
:1009F000390180933A0190933B01A0933C01B0935D
:100A00003D0188EF92E090933F0180933E018985FC
:100A10008093400182E390E0A0E0B0E08093410148
:100A200090934201A0934301B0934401809141010E
:100A300090914201A0914301B091440180934501FE
:100A400090934601A0934701B093480188E693E054
:100A500090934A01809349018A859B85FC0181819D
:100A60009281A381B4818B839C83AD83BE8381E01B
:100A700090E09A83898329C089819A81880F991F80
:100A80009E012F5F3F4F820F931F0996FC018081CB
:100A90009181FC0121813281438154818B819C8130
:100AA000AD81BE81BE01665F7F4F1B01BC01CD01E0
:100AB0000E940B04DC01CB018B839C83AD83BE833E
:100AC00089819A8101969A83898329813A818F81CC
:100AD00098852817390780F28B819C81AD81BE8172
:100AE000BC01CD010E9490000E94BE0080E290E017
:100AF000FC018081809580934B011A821982A0C0ED
:100B000089819A81880F991F9E012F5F3F4F820F25
:100B1000931F0996FC0180819181FC01258136811A
:100B20004781508589819A81880F991FBE016F5F27
:100B30007F4F860F971F0996FC0180819181FC01F0
:100B400081819281A381B481281739074A075B0705
:100B500009F045C089819A81880F991F9E012F5FF6
:100B60003F4F820F931F0996FC01008111818981FB
:100B70009A81880F991F9E012F5F3F4F820F931F0D
:100B80000996FC0180819181FC0121853285898152
:100B90009A81880F991FAE014F5F5F4F840F951F99
:100BA0000996FC0180819181FC018081082E000C56
:100BB000990BF9010995F801808389819A81880F41
:100BC000991F9E012F5F3F4F820F931F0996FC01D3
:100BD00080819181FC01158216821782108689819D
:100BE0009A81880F991F9E012F5F3F4F820F931F9D
:100BF0000996FC016081718189819A81880F991F12
:100C00009E012F5F3F4F820F931F0996FC01808149
:100C10009181FC0125813681478150858B819C81A2
:100C2000AD81BE81820F931FA41FB51FFB01858379
:100C30009683A783B08789819A8101969A83898355
:100C400029813A818F8198852817390708F458CF70
:100C5000000080911A018823E1F310921A0146CF17
:100C6000A1E21A2EAA1BBB1BFD010DC0AA1FBB1FB0
:100C7000EE1FFF1FA217B307E407F50720F0A21B22
:100C8000B30BE40BF50B661F771F881F991F1A948F
:100C900069F760957095809590959B01AC01BD01B9
:080CA000CF010895F894FFCF85
:100CA80000000002000000006700000000000100D2
:0A0CB80000001F012A013501400170
:00000001FF
