:100000000C9454000C9473000C9473000C947300C3
:100010000C9473000C9473000C9473000C94730094
:100020000C9473000C9473000C9473000C94730084
:100030000C9473000C9473000C9473000C94730074
:100040000C9473000C9473000C9473000C94730064
:100050000C9473000C9473000C9473000C94730054
:100060000C9473000C9473000C9473000C94730044
:100070000C9473000C9473000C9473000C94730034
:100080000C9473000C9473000C947300010108012C
:100090002A01310153015A017B01E701BD01C2016F
:1000A000E701D001E701DE0111241FBECFEFD0E44C
:1000B000DEBFCDBF11E0A0E0B1E0E0E5F4E000E09C
:1000C0000BBF02C007900D92AE30B107D9F721E007
:1000D000AEE0B1E001C01D92A231B207E1F70E948B
:1000E000EC010C9426020C940000CF93DF9300D017
:1000F0001F92CDB7DEB789837B836A8389818A307B
:1001000031F48A819B81BC018DE00E94750080ECF6
:1001100090E0FC018081882F90E080729927892BE4
:10012000B1F386EC90E02981FC01208380E090E02F
:100130000F900F900F90DF91CF910895CF93DF93A1
:1001400000D01F92CDB7DEB78B831A82198227C0E9
:1001500088E290E028E0FC01208388E290E028E239
:1001600030E0F9012081422F2B81222F30E00980DD
:1001700002C0359527950A94E2F72170242BFC01E3
:10018000208388E290E028E230E0F90120812260BB
:10019000FC01208389819A8101969A8389838981D0
:1001A0009A810897ACF288E290E028E230E0F90109
:1001B00020812460FC01208388E290E0FC01108211
:1001C00000000F900F900F90DF91CF910895CF9383
:1001D000DF93CDB7DEB780910F0190911001CC0174
:1001E000A0E0B0E040E050E026E030E0841B950B5A
:1001F0002817390708F4A0C08A5B9F4FFC010C94B4
:100200001D0281E090E09093100180930F01A0C047
:1002100080910E01813039F482E090E090931001DA
:1002200080930F018EC080910E01823039F484E0FA
:1002300090E09093100180930F0183C080910E0194
:10024000833009F07EC086E090E0909310018093A7
:100250000F0177C083E090E09093100180930F012D
:1002600077C080910E01823039F484E090E0909361
:10027000100180930F0167C080910E01833039F423
:1002800086E090E09093100180930F015CC0809114
:100290000E01882309F057C081E090E0909310018F
:1002A00080930F0150C085E090E0909310018093FF
:1002B0000F014EC080910E01813039F482E090E050
:1002C0009093100180930F0140C080910E01833004
:1002D00039F486E090E09093100180930F0135C0CF
:1002E00080910E01882389F581E090E090931001C0
:1002F00080930F012AC080910E01882339F481E098
:1003000090E09093100180930F0121C080910E0125
:10031000813039F482E090E09093100180930F01D6
:1003200016C080910E01823091F484E090E09093A9
:10033000100180930F010BC01092100110920F0159
:1003400007C0000005C0000003C0000001C000009D
:1003500080910F0190911001CC01A0E0B0E040E04D
:1003600050E026E030E0841B950B2817390768F130
:10037000835B9F4FFC010C941D02809111010E9430
:100380009E0026C0809111018F3F29F080911101BC
:100390008F5F80931101809111010E949E0018C00F
:1003A00080911101882329F080911101815080935F
:1003B0001101809111010E949E000AC0109211014A
:1003C000809111010E949E0003C0000001C0000046
:1003D0000000DF91CF910895CF93DF93CDB7DEB7C3
:1003E00081E290E0FC01108282E290E02FEFFC01BC
:1003F000208384E290E02FEFFC01208385E290E0EF
:10040000FC01108287E290E02FEFFC01208388E25C
:1004100090E0FC0110821092100110920F011092D6
:10042000110110920E0180E290E0FC018081809524
:1004300080930E010E94E700F6CFEE0FFF1F00240D
:10044000001C0BBE0790F691E02D0994F894FFCFA5
:0E045000000000020000000075000000000027
:00000001FF
