:100000000C9454000C9473000C9473000C947300C3
:100010000C9473000C9473000C9473000C94730094
:100020000C9473000C9473000C9473000C94730084
:100030000C9473000C9473000C9473000C94730074
:100040000C9473000C9473000C9473000C94730064
:100050000C9473000C9473000C9473000C94730054
:100060000C9473000C9473000C9473000C94730044
:100070000C9473000C9473000C9473000C94730034
:100080000C9473000C9473000C947300010108012C
:100090002A01310153015A017B01FF01BE01C50153
:1000A000FF01DC01FF01F20111241FBECFEFD0E4FC
:1000B000DEBFCDBF11E0A0E0B1E0E4E8F4E000E095
:1000C0000BBF02C007900D92AE30B107D9F721E007
:1000D000AEE0B1E001C01D92A331B207E1F70E948A
:1000E00004020C9440020C940000CF93DF9300D0E4
:1000F0001F92CDB7DEB789837B836A8389818A307B
:1001000031F48A819B81BC018DE00E94750080ECF6
:1001100090E0FC018081882F90E080729927892BE4
:10012000B1F386EC90E02981FC01208380E090E02F
:100130000F900F900F90DF91CF910895CF93DF93A1
:1001400000D000D0CDB7DEB79C838B831A82198292
:1001500025C088E290E028E0FC01208388E290E05E
:1001600028E230E0F90140812B813C81098002C006
:10017000369527950A94E2F72170242BFC01208301
:1001800088E290E028E230E0F90120812260FC0161
:10019000208389819A8101969A83898389819A81B2
:1001A0004097BCF288E290E028E230E0F90120813B
:1001B0002460FC01208388E290E0FC0110820000B2
:1001C0000F900F900F900F90DF91CF910895CF93E4
:1001D000DF93CDB7DEB780910F0190911001CC0174
:1001E000A0E0B0E040E050E026E030E0841B950B5A
:1001F0002817390708F4A0C08A5B9F4FFC010C94B4
:10020000370281E090E09093100180930F01A0C02D
:1002100080910E01813039F482E090E090931001DA
:1002200080930F018EC080910E01823039F484E0FA
:1002300090E09093100180930F0183C080910E0194
:10024000833009F07EC086E090E0909310018093A7
:100250000F0177C083E090E09093100180930F012D
:1002600077C080910E01823039F484E090E0909361
:10027000100180930F0167C080910E01833039F423
:1002800086E090E09093100180930F015CC0809114
:100290000E01882309F057C081E090E0909310018F
:1002A00080930F0150C085E090E0909310018093FF
:1002B0000F014EC080910E01813039F482E090E050
:1002C0009093100180930F0140C080910E01833004
:1002D00039F486E090E09093100180930F0135C0CF
:1002E00080910E01882389F581E090E090931001C0
:1002F00080930F012AC080910E01882339F481E098
:1003000090E09093100180930F0121C080910E0125
:10031000813039F482E090E09093100180930F01D6
:1003200016C080910E01823091F484E090E09093A9
:10033000100180930F010BC01092100110920F0159
:1003400007C0000005C0000003C0000001C000009D
:1003500080910F0190911001CC01A0E0B0E040E04D
:1003600050E026E030E0841B950B2817390708F48D
:1003700044C0835B9F4FFC010C94370280911101B4
:10038000909112010E949E003BC0809111019091BA
:1003900012018F3F9F4748F4809111019091120103
:1003A0000196909312018093110180911101909117
:1003B00012010E949E0024C08091110190911201AF
:1003C000892B49F08091110190911201019790932E
:1003D00012018093110180911101909112010E94EC
:1003E0009E000EC010921201109211018091110115
:1003F000909112010E949E0003C0000001C0000005
:100400000000DF91CF910895CF93DF93CDB7DEB792
:1004100081E290E0FC01108282E290E02FEFFC018B
:10042000208384E290E02FEFFC01208385E290E0BE
:10043000FC01108287E290E02FEFFC01208388E22C
:1004400090E0FC0110821092100110920F011092A6
:1004500012011092110110920E0180E290E0FC0155
:100460008081809580930E010E94E700F6CFEE0F09
:10047000FF1F0024001C0BBE0790F691E02D09948D
:04048000F894FFCF1E
:0E0484000000000200000000750000000000F3
:00000001FF
